:020000040800F2
:10000000005000207D7601081D770108695901081C
:100010001D7701081D7701081D7701080000000009
:100020000000000000000000000000001D77010833
:100030001D770108000000001D770108E1F60008A7
:100040001D7701081D7701081D7701081D7701083C
:100050001D7701081D77010835FE000833FE0008F2
:1000600031FE00082FFE00082DFE00085D6100082B
:100070004D6100083D6100082D6100081D61000808
:1000800009610008F76000081D7701081D77010865
:100090001D7701081D7701081D7701082BFE000858
:1000A0001D770108E9F300081D770108F9F300083E
:1000B000D9F30008C9F30008B9F300085B6400082D
:1000C0006164000851640008576400081D77010846
:1000D0001D7701083180000825800008198000087C
:1000E00029FE00081D7701081D77010800000000A7
:1000F0000000000000000000000000000000000000
:0C01000000000000000000005FF808F1A3
:10011000544B2DE9F04F1B689BB0988C524B1880C4
:1001200016F0D0FC514916F025FD514B1860514B8B
:100130001B689C0740F1C8814F4E50487368984730
:10014000002800F0BD814D4B4D4CB3F900302360C9
:100150004A4BB3F902306360484BB3F90430A360F3
:10016000484B93F900201F4632B9474B18889846F0
:10017000002800F07B812CE0404B9D7985B9434BF2
:100180001B686BB1DFF8F480397808F10800284467
:100190001C350AF0DFF8542DF4D1012388F806301D
:1001A000364B9B79002BE0D00025394F1C2354F8A7
:1001B000250003FB057716F089FC0146384614F04C
:1001C000A5FE19F00FFC44F825000135032DECD1F4
:1001D000CBE7A768256887EAE77385EAE572A3EBB2
:1001E000E773A2EBE57293420ADD254949680029CD
:1001F000B8BF49428B4203DD002F1ADC01254CE0D9
:10020000606880EAE071A1EBE0718A4206DD9A4203
:1002100004DD002DCCBF022503253EE0914240F3D2
:100220002581994240F322810028CCBF0425052571
:1002300033E0B0F5C87F2FD1164B00220F480025C0
:1002400000F1A40155540132062A43F8045C1D60F4
:100250005D6003F10C03F1D1C0F8AC50B03014F084
:10026000F9FC1AE0C41E0020D2390020BD378635C3
:100270008833002064140020A8130020D00400203C
:100280008C1F0020B8220020B00D00201015002087
:10029000D8040020300500200025B94F07EB0509E0
:1002A00099F8A4300BBB07F1B000B64914F02AFC52
:1002B0000C2303FB05752368EA6D1344EB652A6E76
:1002C000636813442B666A6EA36813446B66B8F8C0
:1002D0000030012B09D189F8A430D7F8AC300220C6
:1002E0000133C7F8AC3013F01DFDA54BD3F8AC308B
:1002F000062B40F0B7800DF13408A348414614F0B6
:10030000E6FB0025A14F58F82500D7F8009019F01A
:1003100069FB29F815000135032DF3D19A4814F033
:1003200099FC3B68B6F808A0B3F90020984F0592F5
:10033000B3F90220B3F90430069207934FF0000B93
:1003400057F8042C4FF4C87192FBF1F2059B8E4EC6
:10035000D21A10923A68069B92FBF1F2D21A7B688D
:100360004FEA6B0506EB051893FBF1F308F10C0857
:10037000C1461192079A40369B1A1293002310AA85
:1003800052F82300099316F0A1FB0890504616F08E
:100390009DFB089A0146104616F0A0FC014616F097
:1003A000E9FB024659F8040F1146089216F0DAFAF2
:1003B000089A48F8040F3068114616F0D3FA099BE2
:1003C00046F8040B0133032BD9D16D4B4FF07E510E
:1003D00003EB0516D6F8CC0016F0C4FA684BC6F845
:1003E000CC0003EB8505D5F8B0004FF07E5116F038
:1003F000B9FA634BC5F8B000D3F8BC004FF07E519A
:1004000016F0B0FA0BF1010B5D4BBBF1060FC3F810
:10041000BC0007F10C0793D103F1C000A0F110025A
:1004200013A914F0A2FA139819F0A2FC0D901498D5
:1004300019F09EFC0E90159819F09AFC00250F906B
:10044000544B4FF08B411E680DAB53F8250016F04E
:1004500091FB19F0C7FA26F815000135032DEFD1ED
:100460000FF018FE4C4A1388013B1380474B4FF4A2
:1004700080501E68474BB6F900201D6823689A1A01
:10048000B5F900305A4392FBF0F22260B6F902202F
:100490006368B5F902109A1A4A4392FBF0F262605F
:1004A000B6F90420A3689B1AB5F90420534393FBC3
:1004B000F0F33448A360394B01461A780CF0C4FDC0
:1004C0002F4B012283F800210FF096F82C4C804628
:1004D000D4F80431C4F804010593314B04F5847059
:1004E0005B689847002800F00B812E4BB4F9082177
:1004F0001E461A60B4F90A215A60B4F90C219A60B8
:10050000294A92F90010914669B9284B1B88002BA3
:1005100000F0CF80264B274D1B6805F10C0493F8A3
:10052000009000268AE094F80E5185B9224B1B6892
:100530006BB1134F99F8001007F5887028441C35EB
:1005400009F008FF542DF4D1012387F80E3194F8F7
:100550000E31002BD9D00024184D1C2356F824004E
:1005600003FB045516F0B2FA0146284614F0CEFCFF
:1005700019F038FA46F824000134032CECD1C4E712
:10058000D00400208C1F002080050020B022002015
:1005900030050020B4220020B00D0020D539002005
:1005A000B41300200C0C0020A82200201A360020D2
:1005B000A42200203406002010150020E0050020B1
:1005C000D4F800C008936146CDF818C0079016F023
:1005D000C7F9089B8346184616F078FA0146584634
:1005E00016F07CFBDDF818C00146604616F0BAF93B
:1005F0000346079A194660601046069316F0B0F954
:100600000146584616F0B6FAA16816F0ABF9069BFB
:10061000E0602360A060904ADFF844B20023BAF1A2
:10062000010FBB5047F80B30DFF830A222D0013663
:10063000032E05F1040504F1140446D0874BB700DE
:10064000B3F800A0BAF57A7F02BF00232B602361C4
:10065000814B53F826002B6803442B6016F036FAC2
:1006600023690133012B2361AAD10023606020603C
:10067000A360D0E72069012807DD013816F026FACB
:100680000146E06816F02AFB00E0002019F070FB3C
:10069000B9F1000F0FD00690484616F017FA069BE6
:1006A0000146184616F022FC28B14FF47A73AAF8D6
:1006B0000030002313E02B684FF47A7203F5FA73CD
:1006C00093FBF2F34BF80730B1E7BAF800000128CA
:1006D00001D113F0F1FABAF80030013BE7E75E48C8
:1006E0005F4950F8232051F82310521A40F8232074
:1006F0000133032BF3D15B4B01461A780CF0A4FCB9
:10070000594B1E68089316F0020F65D0574B93F8AB
:100710000031002B60D0554B0027D3F8B8414E4B29
:10072000534D53F8270016F0D1F9214616F022FA5E
:1007300045F827000137032FF1D14E4B4FF0000948
:10074000188916F0C3F901464B4816F0C7FA074658
:100750004A4B4B4C53F8290016F0B8F9394616F0BD
:1007600009FA484B44F8290043F8290009F1010926
:10077000B9F1030FECD1444B1B78D8061DD5B10657
:100780001BD59A0719D5414B5A79042A15D9B3F9C3
:10079000200016F09BF9A968064616F0EBF9014611
:1007A000606816F0DDF869686060304616F0E2F9BE
:1007B0000146A06816F0D6F8A060059BC3EB0800C0
:1007C00015F0F2FD22A3D3E9002315F063FE16F025
:1007D00073F80EF0EDF804E0284B00221A605A601E
:1007E0009A602B4BDFF8B880D3F80090D8F800A0BF
:1007F000284C9AF800B099F8D97059463A46B4F99D
:10080000000015F071F8244E3A46308059460546EE
:10081000B4F9020015F068F870809AF807100746DE
:1008200099F8DA20B4F9040015F05EF81B4B404249
:10083000B080B4F90610B3F84E01CDF818808142AB
:1008400030DBB1F5FA6FA8BF4FF4FA612BE000BFBF
:100850008DEDB5A0F7C6B03E0C0C00201A36002076
:100860007C060020D839002064140020D004002029
:10087000D01F0020A81300208F2A75448C1F002051
:10088000DC1F00208C06002018360020A41F00204A
:10089000541F0020CC1E00200C2800201C28002003
:1008A0006C2200200146091A4FF47A725143C0F5B8
:1008B000FA60B1FBF0F14FF0640E91FBFEFCA04A30
:1008C0006FF0630303FB0C1332F81C000CF1010CF6
:1008D00032F91C1002B28A1A5A4392FBFEF3034407
:1008E000F380984B984C1B885B063DD5974B0A20AC
:1008F000B3F9043093FBF0F0954B1B88C01A00B29B
:1009000016F0E4F8934916F035F9804614F0C6FA6B
:100910008146404614F04EFA8046384616F0D6F826
:100920000746284616F0D2F84946824616F022F9C4
:1009300041460546384616F01DF90146284616F090
:100940000FF816F0DDFA49462080384616F012F905
:1009500041460546504616F00DF90146284616F068
:1009600001F816F0CDFA60807B4B1A78500704D559
:10097000002001210FF039FA58E0784978480C68D6
:10098000E1075CBF42F001021A70764A15782A0727
:100990005EBF1A7822F001021A70089A126812F0EB
:1009A000040F02D07049098859B97049098809B102
:1009B000970706D46E4A12881AB96E4A1288632ABB
:1009C00005D9022202701A7822F001021A706A4ACE
:1009D000D2F888144F781146CFB1684A127822B9FC
:1009E000674F3F683F7A022F07D10A7A22B185F01C
:1009F000010202F0010200E0012219784D0702D441
:100A0000604D254005B912B121F0010119701B7824
:100A1000D9074CBF0023022303700EF0EDFD5A4BA3
:100A20001B68C01A002801DB12F09AF9574B9B682B
:100A30000BB157489847574B93F84A31002B65D074
:100A4000554B564D1C7895F8CC31B5F8CA713BB969
:100A500005F5E870012109F07DFC012385F8CC3112
:100A60004F4B4E4D188816F02DF8014605F5E870ED
:100A700014F04CFA16F06AFA80B2B7FBF0F0411CA1
:100A800089B2A5F8EC110CB3B5F9EE910023434CF3
:100A90002D4A04F5F87C32F813E03CF913200FFAE4
:100AA00081F809FB02F292FBF8F204F5FC7737F8C3
:100AB000135027F813E0C5EB0E052A442CF8132039
:100AC0000133042BE3D1A4F8EE0104E0B5F8EE31D4
:100AD000013BA5F8EE31314A0023B2F9EE010028BE
:100AE00012DDB2F9EC412F49A1F1080232F91320CD
:100AF00031F81310424392FBF4F28A1A26F81320BD
:100B00000133042BEFD101E0A2F8EE31224B1A4C55
:100B10001D78002D00F0DF810F4BDFF848801B7837
:100B20000E4F13F0040F3FD1237A002B66D004F54B
:100B30008070D4F81811072208F02CFD5EE000BF89
:100B400058330020583200200C2800208033002029
:100B5000B60D002035FA8E3CDB3900205C320020D7
:100B60005232002018360020D0390020B00D00206D
:100B70001A360020A41C002060230020CC14002082
:100B8000042000200006000154320020B41300208D
:100B9000980600201C280020BC0D0020D004002056
:100BA000D2390020C80600203B685A0116D5B44B44
:100BB0001B8823F47E6323F00F03DB04DB0C6BB98B
:100BC000237A5BB198F8003004F58070DB07D4F825
:100BD00018114CBF0522072208F0DCFC98F8003001
:100BE000D9070BD5A74808F0BBFDC4F89001A5486C
:100BF00008F000FDC4F8940108F0B2FC237A73B148
:100C000098F80030DA070AD5DFF8949299F80032A4
:100C10002BB90E2013F050F8012389F80032A37B82
:100C20002BB13B681B015EBF974B0122DA733B6817
:100C3000DFF854A2C3F3C062C3F34073A2732374FA
:100C400008F01CFB0AF08AF92278904B03EB421360
:100C50005F8978055ED58A4B1B8859055AD498F868
:100C600000308B4A03F0100303F0FF0913B3DAF8E6
:100C70008C34B2F9020093F80390494613F0F8FF60
:100C800080B2002844D0DAF8883400B2B3F84A3091
:100C90004042584315F01AFF8246484615F016FFA9
:100CA00001467C4815F05CFE0146504616F016F8E9
:100CB000012121E0784BDAF88C141888D388C978A0
:100CC0001B1A1BB283EAE372A2EBE3728A4217DDBE
:100CD000DAF8881402B2B1F84A00DAF89C14002B52
:100CE00000FB03F3CBBF48880888801A101A93FBD7
:100CF000F0F015F0EBFE022108F086FB284607E035
:100D00009AF80C0020B10020022108F07DFB484633
:100D1000207301E000232373FA0440F18D80584BC7
:100D20001B885B0500F1888098F8003013F0100FE5
:100D3000D4F88C3409D0B6F90000997813F098FFF4
:100D400000B2003018BF012073E093F80280B6F9BA
:100D50000200414613F08CFF41461FFA80F9B6F9B4
:100D6000000013F085FF1FFA80F8B9F1000F02D1DF
:100D7000B8F1000F4FD0D4F88834434E9A78012A46
:100D800056D1B3F848B00FFA89F00BFB00F04FF4DE
:100D9000FA7990FBF9F015F099FE82460FFA88F087
:100DA0000BFB00F090FBF9F015F090FED6F820B1A7
:100DB00080465946504615F0DDFED6F81C91059048
:100DC0004946404615F0D6FE059B0146184615F0EB
:100DD000C7FD716915F082FF0146D6F8000115F0D4
:100DE000C1FD4946C6F83401504615F0C3FE5946C8
:100DF0008146404615F0BEFE0146484615F0B2FD5C
:100E0000B16915F06BFF0146D6F8040115F0AAFD93
:100E1000C6F838010CE01C4BD87A50B113A80BF07F
:100E200099FC13A84146012208F012FC404600E05C
:100E30002846154BD87201E00023E37217F4005FD7
:100E4000114E34D00E4B1B8803F480639BB273BBEE
:100E5000124A127802F0100202F0FF0112BB0C4B92
:100E6000D6F88C24B3F904309278002BB8BF5B42DB
:100E7000934219DDD6F81831C6F84C3115E000BFA1
:100E800058320020D024002060230020C0B1010887
:100E90000C2800200000FA43000000201836002033
:100EA000D00400201D4600E00D46757301E00023CC
:100EB00073733278AF4B41F2380003EB42139D89D4
:100EC000EB4318400EF0D8FF28460EF0E5FF3278CD
:100ED000A94BA3F80222A94B00271F700AF0D8FCE7
:100EE0000EF08AFBA64B0546A34ED879A6F80472ED
:100EF0009B4610B10123A6F804329BF809A0BAF171
:100F0000000F05D0B6F8043243F00203A6F804320D
:100F10009BF8081029B1B6F8043243F00403A6F890
:100F20000432984B1B789F070CD5DBF88824964F2A
:100F3000127A7F79974222BFB6F8042242F0080263
:100F4000A6F8042296F80C228B4F2AB1B7F8042297
:100F500042F01002A7F804228C4A127802F0040230
:100F600002F0FF071AB98BF8117000F0AABD002239
:100F70009BF800708BF805208BF806207D4A03F063
:100F8000100302EB47125289DFF8F4810592059FA6
:100F900003F0FF0207F00807002B00F0DE82002FAD
:100FA00040F06A85059B13F0010700F0B080D6F889
:100FB000F4247748AA1A82426F4BC6F8F45404D935
:100FC000C3F8F8540BF0AEFBA1E0002900F09D80BF
:100FD00098F80220002A00F09380D3F8F864C3F850
:100FE000F8546C4BAE1B9E4200F28580D8F83081DD
:100FF0006949404615F07AFF08B9DFF89C81D4F8BA
:10100000889499F8650015F061FD644915F0B2FD0A
:1010100013F0D0FE0146404615F0ACFD824699F82B
:10102000660015F053FD5D4915F0A4FD13F0C2FEF6
:101030008146304615F046FD594915F09BFD49465D
:10104000064608F1004015F095FD0023029300903C
:10105000CDF804A03246D4F80811524BD4F83C0124
:1010600009F010FF33464FF080420146C4F84801B2
:101070004D4813F01DFF41460646C4F8480113F0E1
:1010800017FE4A4915F076FD444915F027FE15F084
:1010900037FFD4F888246FF0090392F8661000B285
:1010A0004B43984292F8652004DB0A235343834262
:1010B000A8BF0346DFF8C8803046A8F8803415F092
:1010C0001FFF47F6FF74A042A8BF2046384E2A4BA8
:1010D000B042B8BF3046A3F80C05D8F83C0115F073
:1010E0000FFFA042A8BF2046B042B8BF3046224BF7
:1010F000A3F8120501E00BF015FB214B01229A71B8
:101100001D4B012283F8142501E083F81415059B7B
:101110001B4E03F002091FFA89F9B9F1000F4BD0F9
:10112000154B1B49D3F818259846AA1A8A42C3F8CA
:10113000185504D9C3F81C550BF0D6FA3CE0327AA6
:10114000C2B373788BB1D8F81C45124B2C1B9C4250
:10115000C8F81C5505D810F05DF820460BF03AFA97
:1011600001E00BF0C1FA01237371012388F82035E7
:1011700022E000BFC0B10108D0040020BC0D002057
:101180006023002018360020A41F0020DB39002037
:10119000400D03003F0D03000000964335FA8E3CDE
:1011A000BD37863510240020CC09002000002041E6
:1011B0005A80FFFF83F82025059B9A0700F05C8486
:1011C000D6F888A4B749BAF85E40BAF86230BAF8DF
:1011D00060B0C4EB0B0B1C1BA3B291F814451FFAB3
:1011E0008BFB0593BCB1C7B1AF4B0A22B3F8808427
:1011F0000FFA8BF40FFA88F393FBF2F39AF8672057
:1012000053431BB2A34204DBBDF914409C42A8BF68
:101210001C46A4B203E0A04601E03C46B84691F863
:10122000203533B3B9F1000F00F0AD800FFA88F02C
:1012300015F04CFCB6F87E64804630B20028B8BF8A
:10124000404215F043FC07909AF8680015F03EFC08
:10125000964915F043FD079B0146184615F08AFC98
:101260000146404615F07EFB15F04AFE1FFA80F855
:1012700004E0B9F1000F00F086801E46894B8C49CE
:10128000D3F82425C3F82455AA1A8A4206D9002285
:10129000C3F82855C3F82C25002066E082490A7A55
:1012A000002A59D04A78002A59D0D3F82825C3F803
:1012B0002855C2EB050A7F4A92454FF0000245D8F7
:1012C000D1F830517C492846099215F049FB099A1A
:1012D0000790114615F0ECFD079B10B103F100409B
:1012E00000E01846754915F001FED8B1294672484C
:1012F00015F036FB4FF07F5115F03CFC054650468B
:1013000015F0E0FB6E4915F035FC0146284615F056
:1013100031FC644B0146D3F82C0515F023FB614BDF
:10132000C3F82C05DFF87CA10021DAF82C552846FB
:1013300015F0BEFD30B92846624915F0D7FD10B151
:10134000604D00E00025CAF82C5501E0C3F82C25BB
:10135000554B01225A7102E00022C3F82C25514B53
:10136000D3F82C0515F0CCFD80B2044424B20FFA5A
:101370008BFB5C4504DBBDF914B0A345A8BFA346B5
:101380001FFA8BF400E04E46464BDFF84CA193F871
:1013900014259B46444DF2B1EFB1D5F888246FF087
:1013A000630392F866000FFA88F85843804592F874
:1013B000652005DB642303FB02F04045A8BF4046DF
:1013C00015F084FBD5F89034B3F9361012F068FDAF
:1013D0004042AAF802009BF82035002B00F0A080C4
:1013E000B9F1000F00F09C80D5F8883436B293F83C
:1013F00064206FF0630303FB02F7BE4205DB642346
:1014000003FB02F7B742A8BF3746384615F05EFB2C
:10141000D5F89034B3F9341012F042FDD5F83061AC
:10142000AAF800002849304615F056FD002875D06E
:10143000784215F04BFB254915F050FC244915F076
:1014400099FB804613F0B6FC0746404613F026FD94
:10145000069B01461B68384693F8058015F03EFC54
:101460001C4915F087FB314615F038FC184915F07A
:1014700035FC164915F032FC0646C8F1000015F09F
:1014800025FB0746404615F01DFB39468046304691
:1014900015F00EFD10BB3046414615F027FDF0B1AA
:1014A00046461CE0D0040020602300200000C84213
:1014B000400D03003F0D030000002F440000484290
:1014C000BD3786350000FA430000964300002041F6
:1014D00035FA8E3C8F2A75440C2800203E46304653
:1014E000394615F03DFA964915F044FB3946064653
:1014F000404615F035FA0146304615F0EFFB9049AD
:1015000015F02EFA8F4915F02DFA15F0F9FC15F0AB
:10151000DDFA15F0F5FCAAF8040001E08A4B98808A
:10152000D5F8882424B2B2F85E301C44B2F860309A
:10153000B2F862209C4203DB94422346A8BF1346C4
:10154000D5F89C140A884988934203DB8B42A8BFD4
:101550000B461A46AAF806208EE2002F53D07A4B8B
:10156000D6F83015794FC6F830551A805A809A80CF
:101570001E4600283DD0764A6B1A934204D9C7F81C
:10158000345507F099FC77E298F80230F3B1D7F8B8
:101590003445704B2C1B9C42C7F8345511D8D8F8F1
:1015A0008834B3F8520015F091FA012100F100409F
:1015B00007F02AFF204607F0F3FC204607F0A2FCC4
:1015C00001E007F079FC644B01229A71DBF8883462
:1015D000DBF89C14B3F95A20BBF9843413440A880D
:1015E0004988934203DB8B42A8BF0B461A46F28020
:1015F00042E25A4A12680AB1528802E0D8F89C24A2
:101600001288DA8038E2059BDB077ED5D6F83835BC
:101610004F49EB1A8B424D4AC6F8385504D9C2F8E7
:101620003C5507F049FC70E098F80230002B56D08A
:10163000D2F83C75474BEF1B9F42C2F83C5549D846
:1016400098F8103083B3D8F850910021484615F02F
:1016500043FC48B3D8F824810021404615F03CFCF7
:10166000F0B1BAF1000F1BD0384615F02BFA3C4907
:1016700015F080FA3B4B024600933B4B41460193E9
:10168000002302934846394B09F0FCFBDFF8E88061
:101690000146D8F8080115F065F9C8F83C0103E0E7
:1016A0003348002107F0B0FEDBF83C0118F09AF94E
:1016B00047F6FF739842A8BF18462E4B9842B8BF12
:1016C0001846A6F81205384607F06AFC384607F0B7
:1016D00019FC01E007F0F0FB1F4B01229A71DBF8C7
:1016E0008834DBF89C14B3F95A20BBF984341A44CB
:1016F0000B8849889A4203DB8A421346A8BF0B46EF
:10170000114A9BB2D380A6F84035059B9F0740F154
:10171000A781D6F84435C6F84455EA1A0E4BD3F8DB
:101720008814897809B9D97A00E00021069108491E
:101730008A4223D9C6F8485507F09CFB90E100BFC8
:1017400000007A440000FA430C280020D004002056
:10175000400D03003F0D0300602300200420002003
:10176000BD3786350000A0C000000C42EC230020ED
:101770000000A0C15A80FFFF602300201B7ADFF821
:10178000AC82002B00F0338198F80130002B00F080
:101790004F81069BD6F84875C6F84855002B40F097
:1017A0002281954BEF1B9F4200F21B8107F066FAE6
:1017B000D8F80C11D8F8400115F0D2F8D8F810116B
:1017C0000646D8F8440115F0CBF8314605463046B8
:1017D00015F0D0F929468046284615F0CBF9014688
:1017E000404615F0BFF818F0C3FA8449804615F05A
:1017F0007DFB80B14146824815F070FA26F0004129
:10180000804615F0B7F925F000410646404615F030
:10181000B1F9054601E07B4D2E46384615F052F9E8
:10182000794915F0A7F97949804615F0A3F9824660
:10183000774B5146D3F84C9506F10047484615F0D2
:101840008FF83946834615F033FB30B95846314698
:1018500015F04CFB10B1B34600E0BB46484651467C
:1018600015F080F83946814615F022FB38B9484614
:10187000314615F03BFB08B94F4600E03746644B54
:101880005146D3F8503505F100461846079315F038
:1018900067F83146814615F00BFB30B948462946BA
:1018A00015F024FB10B1A94600E0B1465146079857
:1018B00015F058F83146824615F0FAFA38B9504614
:1018C000294615F013FB08B9564600E02E4601974D
:1018D00000270297CDF800B0D4F80C114246D4F896
:1018E00040014C4B09F0CEFACDF8009001960297DA
:1018F0000546D4F810114246D4F84401464B09F08D
:10190000C1FA434B0646C3F84C55C3F85005294667
:1019100003F254504FF08042434613F0C9FA434655
:101920004FF08042074631463C4813F0C1FAD4F8E4
:101930001C510646294607F1004015F01BF9D4F862
:10194000208181464146304615F014F9014648464B
:1019500015F008F841468146384615F00BF929463E
:101960000746304615F006F90146384614F0FAFFEE
:101970002B4913F09DF9064613F090FA01464846AC
:1019800015F0F8F8264913F093F9264915F0F2F806
:10199000254915F0A3F915F0B3FAD4F8883493F873
:1019A000584004EB840464006542A84203DBA04273
:1019B000A8BF204600E028461C4F1A49A7F87E041D
:1019C000304615F0D7F8184915F088F915F098FA4F
:1019D000A84203DBA042A8BF20460546A7F88054D2
:1019E00001E007F047FA114B01225A7120E0A8F8F4
:1019F0008034A8F87E3433E03F0D0300CDCCCC3DDD
:101A000000007544C23D2D44BD3786350080D44466
:101A1000D004002080230020A4230020300A0020CE
:101A20008F2A75440000204135FA8E3C6023002047
:101A3000069BABB9A54CA64DD4F89064B4F98004CC
:101A400015F044F8B6F9361012F02AFA6880B4F9A5
:101A50007E0415F03BF8B6F9341012F021FA288014
:101A6000059B5D0741BF994B6422D3F84C3193FB32
:101A7000F2F344BF974A1380944B5A790AB100227B
:101A80005A709A7912B1914A00219170DA7A32B182
:101A90009149B1F8042242F02002A1F804221A7BF5
:101AA00032B18D49B1F8042242F04002A1F804227B
:101AB0005B7B33B1884AB2F8043243F08003A2F86A
:101AC0000432864B1B78C3B1854B864AB3F90610A6
:101AD000B2F84E31994210DC5379012B01D0192B09
:101AE00002D192F8A02142B90E2B06D003F0EF03E9
:101AF000082B1EBF764B00229A807B4BDFF814B276
:101B00001D7805F0100303F0FF020792002B63D14C
:101B10006E4B1A78754B03EB42135B891C060BD492
:101B2000DBF8003093F8DD60002E55D0704B1B8839
:101B3000980751D0B6B200E064266E4BDFF8A4914E
:101B4000D3F82080624F40466B49B9F8E440B7F8BB
:101B500006A015F0ADF9002840F0628240464FF033
:101B60007E5115F0C3F908B14FF07E58204614F0AD
:101B7000ADFF05900FFA8AF0001B14F0A7FF414655
:101B800082464FF07E5015F0A9F84FF07E5114F0C8
:101B9000E7FE8046304614F099FF584915F09EF84C
:101BA0000146404614F0E6FF4FF07E5114F0DAFE95
:101BB0000146504614F0DEFF059A0146104614F027
:101BC000D1FE15F09DF9A042B9F8E63003DB98424A
:101BD000A8BF18460446FC80DBF800300593484B4C
:101BE0001B680693089B1E6816F0080622D005F0B5
:101BF000080505F0FF06EDB1344A3C4B117803EBC4
:101C000041135B89590606D5079B23B9537B002BEB
:101C100040F009820DE02E4BB3F90430002BB8BF21
:101C20005B420E2B00F3FF81314B1B885A0740F1BA
:101C3000FA810226334C0027A0462546324B53F842
:101C4000270014F043FF314B196914F093FF022F62
:101C5000C8F8100075D1022E73D12D4B0A20B3F9AC
:101C600004301C4A93FBF0F310881B1A9BB298B205
:101C700002B2B332BCBF03F5B47080B203B2B32B6F
:101C8000059BC4BFA0F5B47080B21B7A00B2584364
:101C90001E2390FBF3F014F019FF059B824693F886
:101CA00038B0CBF1000014F011FF8146584614F013
:101CB00009FF49468346504615F0FAF868BB50467E
:101CC000594615F013F938BBD14626E060230020B1
:101CD0000C280020B40D0020D004002011000020AA
:101CE000CC1E00201C28002018360020C0B101089E
:101CF000583200205C1F00209A99193F0000C8420A
:101D00006C2200208C3300200C0C0020B413002027
:101D100080330020541F0020D946AE4B4946AE48C0
:101D20004FF080421B6813F0C3F8DFF8BCB2824664
:101D3000594615F0BDF8002800F01D87C5F8ECB035
:101D400042E0069B3B4493F803B0584614F0BAFEB9
:101D50008246CBF1000014F0B9FE0146504614F063
:101D6000FFFD9E4B834633F9170014F0AFFE9C49EC
:101D700014F0F8FD0146584614F0FCFE994914F0A1
:101D8000ADFF594614F0ECFD514614F0EBFD15F093
:101D9000B7F80A23584314F099FE9349824615F088
:101DA00087F830B95046914915F0A0F818B18F481E
:101DB00002E08D4800E050460137032FC8F81400B8
:101DC00008F16C087FF43AAF894F3B889B0760D0DD
:101DD000884BB3F84CA1059BD87E6428A8BF64202B
:101DE00014F074FE844914F079FF844B8046B3F9F3
:101DF0000200B3F90030CAEB00000028B8BF40422F
:101E0000CAEB0303B0F5FA7FA8BF4FF4FA70002BBA
:101E1000B8BF5B42B3F5FA7FA8BF4FF4FA7398429C
:101E2000B8BF184614F052FE6D4914F057FF4146F2
:101E3000824615F047F840B14146714814F04EFF14
:101E40000146504614F096FE13E05046414614F009
:101E500087FD6C4914F08EFE414682464FF07E505D
:101E600014F07EFD0146504614F038FF644914F02A
:101E700079FD8046009006990598634A002311F089
:101E800069FFCDF8008005980699604A012311F09A
:101E900061FFB7F800804F4F18F4005F41D0022E69
:101EA0003FD0D5F8EC600021304615F001F810B1B4
:101EB00006F1004000E030464FF0804115F016F882
:101EC00018B9534B1B78580703D40023C5F81831B1
:101ED00027E03046D5F8E81014F042FD396814F0D8
:101EE00049FED5F8181114F03DFD4A49064614F094
:101EF000DFFF30B93046484914F0F8FF10B1464EC4
:101F000000E0444E059BC5F81861187A14F0DEFD18
:101F1000424914F0E3FE0146304614F02BFEC5F8AA
:101F2000EC0018F4004F17D0002313931493D5F846
:101F3000EC3013A815930CF055FC6869139914F054
:101F400011FD14996861D5F8800014F00BFD159B04
:101F5000C5F88000C5F8EC302B4ED7F8009000276C
:101F6000059B022FD86A1B6B67D0322B2BD91846E2
:101F700014F0A8FD0021D6F81480054614F0B6FF31
:101F8000E8B12846494614F0F5FD8246D6F850B02F
:101F90005146584614F0E4FC05464046294614F0E4
:101FA00087FF50B95146584614F0DCFC05464046C0
:101FB000294614F09BFF00B94546356501E0C6F897
:101FC0005080336D73610137032F06F16C06C7D162
:101FD00035E000BF883300203C0A00200C28002098
:101FE0000000FA4300007A440000E1C40000E1442C
:101FF000583200201C2800200000C842CC1E0020BF
:102000007A371E3F0C91C33E8C330020F8330020FA
:10201000DB390020000034C2000034420000A0423E
:10202000DFF85482A2E5894B0A22B3F90430012675
:1020300093FBF2F3864A1380FCE5322898D8059B7F
:102040000025133308932169606914F089FC216825
:10205000099014F08FFD022D074621D17D4B1B788E
:10206000032B0FD9059B5E8C66B114F049FF7342B8
:10207000984203DBB0420346A8BF3346184614F02B
:1020800025FD0746059B93F8240048B114F01AFD7E
:10209000714B0246394671481B6812F009FF07462A
:1020A000089A12F8013F0892002B48D094F8342087
:1020B000E16A013A081D9200266917F05CFAE36AAA
:1020C0004FF000091E6094F83580002646450EDA70
:1020D000226BE36A52F8260053F8261014F04AFDEA
:1020E0000146484614F03EFC01368146EEE75A4B65
:1020F000A068D3F8008000F10040414614F0EEFDE6
:102100000146484614F036FD059B0646987F50B1BF
:1021100014F0D8FC04F160090246314648464346B3
:1021200012F0C6FE064630464D4914F0C1FE40B9D5
:1021300030464C4914F0DAFE20B14A4E02E0002647
:1021400000E0474EA36B31463846069314F00AFC74
:10215000069914F007FC4449824614F0A9FE30B9F0
:102160005046424914F0C2FE20B9D04604E0DFF8E0
:10217000F88001E0DFF8F480059B022D0CBF188D7C
:10218000D88C14F0A3FCD4F814B081460021584632
:1021900014F08EFE10B10BF1004000E058464946A5
:1021A00014F09CFD01464FF07E5014F0D9FB002145
:1021B000814614F07DFE40B948464FF07E5114F040
:1021C00095FE20B14FF07E5901E04FF00009224BFF
:1021D00061681B680998079314F0CCFC494614F019
:1021E000C9FC079914F0C6FC51468146404614F0DC
:1021F000B7FBE16814F0BEFC079914F0BBFC014684
:10220000484614F0AFFB0146069814F0ABFB184BA0
:1022100082461B78A063990602D4164B1B786BB3D9
:10222000D4F83C90504609F100431946069314F047
:102230003FFE069B30B95046494614F057FE10B990
:10224000D14600E09946C4F838901FE08033002062
:10225000B40D0020F434002088330020B83400206E
:10226000000096C30000964300007AC400007A4440
:1022700018360020D43900209A99193F002114F013
:1022800017FE08B10AF1004AC4F83CA0404614F019
:1022900037FEDFF858926C3409F5AF6A2AF815005A
:1022A000384614F02DFE09F5B06848F8250054F8BA
:1022B000340C14F025FE09F28C5747F825003046FF
:1022C00014F01EFE09F5B36747F82500584614F0D0
:1022D00017FE09F2A45646F825000135032D7FF4B8
:1022E000B2AE774B774C1E78032E16D923685888E8
:1022F000B0F5FA7F11D2744BB9F97C55B3F90410DB
:1023000042420029B8BF4942531A9D4203DB431899
:10231000AB42A8BF2B46A9F87C354FF000082768D0
:10232000C2464446694DB24538DAB9F97A0514F027
:10233000CDFBA96814F01EFC8346B9F9780514F0AA
:10234000C5FB696814F016FC0146584614F00AFBF8
:1023500097F900308346B9F97C055B42584314F085
:10236000B5FBE96814F006FC0146584614F0FAFA89
:1023700014F0C6FD13AB80B223F81A0022B203B2E8
:10238000934204DC0FFA88F2934202DB20460446B3
:1023900040460AF1010A10358046C4E74C4AC8EBB2
:1023A00004041368A4B213F4805F0692464B4948B4
:1023B00035D0494AB3F8068012780FFA88F712F040
:1023C000040F464A08BF1168136804BF098BA9F8B7
:1023D0001016198B424B1D68EB88CA1A974204DC11
:1023E0000268B5F800B0158806E00B449F4206DB92
:1023F00003686D88B3F802B0A9F8108615E0B9F942
:1024000010369342D9BFB5F800B0026803686D88F2
:10241000D9BF1588D846B3F802B0A84605E0B3F88E
:10242000068003681D88B3F802B0C5EB0B0A24B21E
:102430000FFA8AFA54452B4A5ADD0123137050468D
:1024400014F044FB0746204614F040FB0146384692
:1024500014F044FC04464FF0000BB34511DA13AB03
:1024600033F91B00059314F031FB0146204614F0AC
:1024700081FB14F045FD059B23F81B000BF1010BBC
:10248000EBE70223384618499AFBF3FA14F072FB83
:102490004FF07C5114F06EFB044628B2504414F007
:1024A00015FB214614F05CFA14F02AFD85B228B21F
:1024B000504414F00BFB214614F054FA53E000BFD3
:1024C000F4340020C02200200C280020800A0020C4
:1024D000741400209C350020DB390020C422002029
:1024E00098350020D4390020C3F5A83ED004002040
:1024F00000211170504614F0E9FA744914F03AFBC7
:102500004FF07C5114F036FB022794FBF7F49AFB52
:10251000F7F782462DB2E81914F0D8FA514614F0B4
:102520001FFA0590281914F0D1FA0599054614F000
:10253000BFFC00B9059D284614F0E2FC85B228B224
:10254000384414F0C3FA514614F00CFA07460FFA57
:102550008BF0001B14F0BAFA3946044614F0C6FC9E
:1025600000B93C46204614F0CBFC594B1FFA80FAC8
:102570001A7802F0040202F0FF03002A00F08580BE
:10258000544B5549DB78554F0793069B1A68B9F9A8
:10259000103602F4805B02F0100C514A0593B2F938
:1025A0000620504BD1F800904F4906921B687200EC
:1025B0000C6808920026089A96425FD013AAB25A75
:1025C0000FFA88F0CDF82CC00A93099214F07EFA25
:1025D000464951F8361014F0CDFA14F091FC29B2A6
:1025E00009AA884292E80C1004DB0FFA8AF18142B2
:1025F000A8BF01460A44079992B227F8022F12B2E7
:1026000061B1A18860888A4203DB8242A8BF02468A
:1026100011463980BCF1000F25D12DE0BBF1000F30
:1026200014D0B9F80600198B091A05988842D5BF4D
:102630002188B9F80210B9F8000060888A4203DBEB
:102640008242A8BF02461146398015E02188608881
:102650008A4203DB8242A8BF024611463980BCF1A0
:10266000000F03D108E0BBF1000F05D15A8B06998A
:102670009142BCBFA2883A8002369CE71C4B93F87B
:102680001226002A00F05F8109E0B342F6DA194A07
:1026900032F81310184A22F813100133F5E7174ADD
:1026A000174812680E4CB2F850110E4D059192F871
:1026B0005211028812F4807F26D0124B1A88ADF88E
:1026C0004C205A889B88ADF84E2034E0C3F5A83ED4
:1026D000DB390020FC1E002098350020CE3400207D
:1026E000CC1E0020C42200209C350020800A00203F
:1026F000D004002038360020D0340020541F0020A1
:10270000583200200C280020B3F87825ADF84C2072
:10271000B3F87A25B3F87C35ADF84E20BA4AADF857
:1027200050301268D20408D52A68B4F90660128BBA
:10273000964202DA5B42ADF85030B44F4FF47A72F1
:10274000B7F902304FF4616603F5E163534393FB3D
:10275000F6F3A3F5FA73ADF86430B7F9003003F57A
:10276000E1635A4392FBF6F2A94BA2F5FA721B8879
:10277000ADF86620A3F2DC53ADF852302B68228806
:102780001B8BD21AADF854206288D21AADF85620AD
:10279000A288D21AADF85820E288D21AADF85A2091
:1027A0002289D21AADF85C206289D21AADF85E2077
:1027B000A289D21AADF86020E289D31AADF862304E
:1027C0000023944A002422F813400133082BF8D147
:1027D000914B01291B6807880693904B90491B6811
:1027E00007F4804707938F4B8F481B78BFB2C3EB2A
:1027F000C3030B4414BF4FF0010B4FF0FF3B089392
:10280000089B994200F087800B7833B103F11202E4
:1028100001239340069A134079D0079B11F806ECE8
:102820004FF00E0C0CFB0E3CBCF90020BCF9023042
:1028300064249B1A11F9022C9BB25A4392FBF4F2C6
:1028400011F805AC4FEA530911F8035CC9EB020219
:102850004FEA4A061AAC92B211F8018C264415B917
:1028600036F81C4C0CE0B0F9004036F91C6CB44250
:1028700008DA2544A54203DBAE423446A8BF2C4605
:10288000048008E007DD651BB54203DBA542A8BF55
:1028900025462E4606807FB1AEF10304012C0BD8ED
:1028A000BEF1040F059D14BF01244FF0FF346C43AB
:1028B00005880BFB04540480DCF80A50012404FA58
:1028C0000AF42C4211F9046CB0F9004012B206FB74
:1028D00004F44FF0640694FBF6F414BF4FF0FF3598
:1028E000012594420BDB4FFA88F803FB08F292FBB8
:1028F000F6F2C9EB020212B2A242A8BF2246454B31
:1029000033F81E9002FB059223F81E2000E003809E
:102910000230073174E7414B444E1F6800250E23F7
:1029200003FB057393F9064036F9023FE8B26343AF
:10293000642493FBF4F4348011F0CEFB0135204481
:10294000082D3080EBD1304D2B689B0646D50020FA
:1029500011F0C2FB2F4C06462080012011F0BCFB79
:102960002D4B60801B681F0638D5314BDFF89CC0AB
:102970001B681B78012B294B1CD11968BCF900304E
:1029800091F914204FF0320E5A4392FBFEF291F966
:10299000063097B2BCF902205B4253436FF031021C
:1029A00093FBF2F293FBFEF33A44B1183B442180CF
:1029B000184412E01F68BCF9022097F90610322370
:1029C000514391FBF3F13144218097F91420BCF974
:1029D00000104A4392FBF3F210446080154ED6F883
:1029E00034363BB996F83836002B00F0BB8011F036
:1029F000A1FAB7E0104F3B6893F90830F3B9074BE1
:102A0000D3F800C0002347E0741400208033002076
:102A1000D0340020180C00205C320020581F002009
:102A2000A9350020A0350020E40A0020160C002063
:102A3000BC220020D0040020C022002096F8394695
:102A400006F23C6964B93B6809EB040099791C34CF
:102A500007F080FCE02CF6D14F4B012283F8392699
:102A60000024DFF838A14FF01C083AF9140014F0E4
:102A70002DF808FB04980146404612F047FA14F07E
:102A80003FFA2AF814000134082CEAD1B7E70133E1
:102A9000082B20F80E2013D00E2101FB03C13F4864
:102AA000B1F9002030F913404FEA430E9442B1F9D6
:102AB00002108046EBDB0AB2A242A8BF2246E6E73C
:102AC00096F81C37012B01D0192B0BD1344B1B78F6
:102AD000580707D43B6893F804A0BAFA8AFA4FEA79
:102AE0005A1A01E04FF0000A96F81246B4B12D4B85
:102AF000002793F800902C4A07EB090312783C4614
:102B000093420BDCF8B2BAF1000F01D0002101E0D2
:102B100038F813100CF04CFF0137ECE72B689906DE
:102B20000BD5E0B2671CB8F800100CF041FFF8B20A
:102B3000B8F8021002340CF03BFF2B68DA027FF584
:102B400051AFDFF86C80E4B20027E019C0B238F86A
:102B5000021F0CF02DFF0D2F07F101033FF442AFD0
:102B60001F46F2E7114B1B7893B92B681B030FD557
:102B70000BF01EFA0CE0DFF83CB05046594614F05A
:102B8000B5F900283FF417A9C8F814B0FFF71CB92D
:102B90001BB0BDE8F08F00BFD0040020180C00204F
:102BA000DB390020A1350020A2350020D9390020D2
:102BB000D21E00200000E1442DE9F04F9E4BB1B041
:102BC0001D780093002D00F0E3809C4B18680028CE
:102BD00001F056860DF02FF9994C206808F0B3FDEE
:102BE000002801F04D86206808F0A7FD0928954EC1
:102BF00001D03F2850D10027B8463468924D2CB1FF
:102C000092482968224616F01DFD20B92F46B8F1DA
:102C1000000F00D1A8468E4B08359D42EFD34546A4
:102C2000B8F1000F1BD03368D8F8002012F803E089
:102C30003A68D05C704512D15A1C844958B92D2B82
:102C400009D8DFF800E2CEF800204FF0200E01F89E
:102C500003E0885403E001F803E03260E3E73368FF
:102C60000BB1B8450FD07B4812F040FBBD4207D8EE
:102C700055F8080B12F03AFB092012F0B9F9F5E704
:102C80000EF0DAFF002433689C42A5D26F4B185D2A
:102C900012F0AEF90134F6E73368002B41F0758588
:102CA000042841F0C68569480AF0B8FC01F0E8BD87
:102CB0003068DFF8C49108F046FD002851D0D9F8FB
:102CC000000008F03AFDDBF80030014693F8482098
:102CD000002A79D1242840F0D580012283F84820A9
:102CE000DBF8003093F84820062AE1D193F8490038
:102CF000642800F0C88200F2C581362800F02B87D6
:102D000000F27281242800F0908600F211810328DD
:102D100000F09B8240F2ED80052840F0FF801A20F1
:102D200010F0BCF900244C4B185D013410F071F91F
:102D30000B2CF8D10024494B185D013410F069F9CF
:102D4000082CF8D10024464B185D013410F061F9CD
:102D5000072CF8D110F06EF9424B00221B6883F863
:102D60004820414B18680DF066F8404B93F8453009
:102D700053B158F8050010F00DFE11F031F90DF0C7
:102D8000A3F83B4A3B4BDA604C35982D01F078852F
:102D9000DFF8EC8055F8083005EB0802002BF3D083
:102DA000354E0993336000232E4C344F8DF8293073
:102DB000DFF8B4A014238DF8283008AB2260089700
:102DC000CAF80030A34673E7012A04D14D2814BF86
:102DD0000022022282E7022A04D13C2814BF0022EA
:102DE00003227BE7032A0AD140284FF000029FBF4D
:102DF0001A71DA715871987198BF04226EE7042A2B
:102E000006D19A7983F8490051409971052265E706
:102E1000052A7FF465AF58791A799042987906D9D6
:102E200048409871501C18711344197258E7884231
:102E30000CBF0622002251E7D93900203436002089
:102E400030360020501F0020B0CF0108201F002086
:102E5000A8D001084CD10108B4D10108C0D10108A3
:102E6000C9D101081C33002020330020F00B0020C2
:102E70000400FA0500ED00E0243300208DB70008BF
:102E800084320020C94A137803F0040303F0FF0ED4
:102E9000002B7FF425AF2329D9F800001CD1029222
:102EA000009A01231370C24B01911860C14B186046
:102EB000C14B586010201872C0481F60036083F82F
:102EC00009E0BF4812F012FA0EF0B6FE029A01991C
:102ED000137843F002031370BA4B1B681B788B42C4
:102EE00001BFB94AB94B1A60B94A04BFB94BDA609D
:102EF000F6E6012800F09D81022840F0D1860420EA
:102F000010F0CCF8492010F084F84E2010F081F831
:102F1000412010F07EF8562000F0BEBEC0F0A08127
:102F2000222840F0BD86502010F0B8F80026A2E319
:102F30002A2800F0A28519D8262800F07C852828A8
:102F400040F0AE86A44C072010F0A8F8B4F82A018F
:102F500010F0A7F8B4F82C0110F0A3F894F82E01A3
:102F600010F057F8B4F8300100F092BE322800F0AB
:102F7000BB85342800F08C832C2840F09186964C39
:102F8000162010F08BF894F83C0110F042F8B4F8D9
:102F9000500110F086F8B4F84C0110F082F8B4F843
:102FA0004E0110F07EF894F8450110F032F8B4F8B4
:102FB000520110F076F8B4F8540110F072F80020C5
:102FC00010F027F8002010F024F8002010F069F825
:102FD00094F83E0110F01DF8D4F8400110F06AF8A2
:102FE00094F8440100F058BE452800F02F8622D8FE
:102FF0003B2800F01C8309D8382800F02B853A289C
:1030000040F04E86042010F049F86AE2402800F0B3
:103010007285422800F07E853D2840F041866E4C46
:10302000022010F03BF894F899010FF0F2FF94F8A9
:10303000980100F031BE4B2800F025850ED84728B6
:1030400000F0B485C0F0A185492840F0298602200F
:1030500010F024F8604BD88900F01ABE4F2800F019
:103060003182502800F0C5854D2840F019865B4C10
:103070005B4E2078002700EB4000C0B210F00EF845
:1030800000F01CBD742800F0298349D86B2800F09B
:10309000EB831FD8672800F07A8111D8652800F0EB
:1030A0002D81662840F0FC8512200FF0F7FF4D4B74
:1030B00000241B89B3F5806F8CBF0826012647E1E9
:1030C000692800F0DD8100F2B08310200FF0E6FFE8
:1030D0000024C9E16F2800F0618214D86D2800F047
:1030E000E28100F20282404C06200FF0D7FF2088D8
:1030F0000FF0D7FF60880FF0D4FFB4F904300A2036
:1031000093FBF0F048E2722800F04A8300F28183DA
:10311000702840F0C5851E200FF0C0FF002466E235
:103120007D2800F09F8523D8772800F0188307D8E2
:10313000752800F07082762800F0D28300F0B0BDD0
:10314000792800F0A083C0F02E817C2840F0A8856B
:10315000214C06200FF0A2FFB4F8EC000FF0A1FF05
:10316000B4F8EE000FF09DFFB4F8F00000F090BD51
:10317000A42800F0258439D8962800F09380A02850
:1031800000F045847E2840F08B85134C03200FF01F
:1031900085FF94F8F8000FF03CFF94F8F9000FF069
:1031A00038FF94F8FA0000F077BD00BFDB3900204B
:1031B0003036002070220020F00B00203436002032
:1031C0007CD10108D0140020EFBEADDEF04F00200E
:1031D0000400FA0500ED00E01C280020182800205B
:1031E00072290020A813002080330020F12800F06D
:1031F0001581FE2800F0FD83A62840F05185CF4CB4
:1032000014200FF04BFF20880FF04BFF60680FF089
:1032100051FFA0680FF04EFFE068C94C0FF04AFF65
:10322000208D0FF03EFFA08C0FF03BFFE08C00F0F4
:103230002FBD03200FF032FF00200FF0EAFE012027
:103240000FF0E7FE152000F027BD0FF027FF01204B
:103250000FF0DFFE02200FF0DCFE002000F01CBDAE
:1032600006200FF01BFF41200FF0D3FE46200FF089
:10327000D0FE4E200FF0CDFE41200FF0CAFEB14B24
:10328000187800F005BD07200FF008FFE7200FF0C9
:10329000C0FEAD4B58790FF0BCFE00200FF0B9FE18
:1032A000AA481FE10D200FF0F9FEA94B18880FF076
:1032B000F8FEA84B188880B20FF0F3FEA64B1B68EF
:1032C000C3F3C000C3F38002800040EA4200C3F3AE
:1032D00040021043C3F3401240EAC20003F010035F
:1032E00018430FF0DEFE0FF05BFD0FF0E3FE964B90
:1032F00093F854060FF08DFE984BD8E20B200FF098
:10330000CDFE934B18880FF0CCFE924B188880B2FC
:103310000FF0C7FE904B1B68C3F3C000C3F38002DD
:10332000800040EA4200C3F340021043C3F340125E
:1033300040EAC20003F0100318430FF0B2FE0FF092
:103340002FFD0FF0B7FE804B93F8540600F0A4BC9D
:10335000834B53F82400013490FBF6F080B20FF059
:10336000A0FE032CF4D17F4CA08B0FF09AFE208C92
:103370000FF097FEA08C7C4C0FF093FE20880FF08E
:1033800090FEA0880FF08DFE208900F081BC1020F7
:103390000FF084FE0024754B185D01340FF039FEE8
:1033A000102CF8D1D6E470200FF078FE00270E2400
:1033B0007C436F4E013733682344B3F8DE000FF0CF
:1033C00070FE33682344B3F8E0000FF06AFE336800
:1033D0002344B3F8E2000FF064FE3368234493F80B
:1033E000E4000FF016FE3368234493F8E5000FF075
:1033F00010FE3368234493F8E6000FF00AFE3368AA
:10340000234493F8E7000FF004FE33681C44D4F81B
:10341000E8000FF04FFE082FC9D19BE470200FF099
:103420003DFE494C04F1700694F874000FF0F1FD74
:1034300094F875000FF0EDFD94F876000FF0E9FDBB
:1034400094F877000FF0E5FD94F878000FF0E1FDB7
:1034500094F879000FF0DDFD073494F873000FF055
:10346000D8FDB442E0D175E4052C96BF414B002055
:1034700033F8140001340FF014FE082CF4D169E481
:103480003D4E00243078400000F0FE000FF006FEB4
:1034900033789C42BFF45EAC384B33F814000FF025
:1034A00000FE0134F4E7364C06200FF0F7FDD4F8A7
:1034B000080116F097FA0FF0FDFDD4F8140116F08C
:1034C00091FA69E00B200FF0E9FD00200FF0A1FD5B
:1034D00000200FF09EFD00200FF09BFD00200FF05C
:1034E000E9FD00200FF0E6FD34E44FF6FF740720FD
:1034F0000FF0D4FD234B1888FF28A8BFFF20C0B2CF
:103500000FF087FD204B1868A042A8BF204620EA94
:10351000E07080B20FF0C5FD1C4B18880FF0C1FDA4
:10352000094B93F82F211A4B18689AB30A23584372
:10353000A042A8BF204620EAE0702DE070130020D2
:10354000A41F0020D63900201C2800203C00008049
:10355000D23900201423002064140020A41C002071
:103560008C1F0020F00B0020981F0020180C00205A
:10357000541F0020D034002018280020CC1E00202A
:1035800060230020BC1E0020E01200200213002057
:10359000DC12002000F30F0080B279E30B20C54C51
:1035A0000FF07CFD64200FF034FD23682746187867
:1035B0000FF02FFD00263B68BE4C3344D87801360F
:1035C0000FF027FD032EF6D1236898790FF021FD27
:1035D000236858780FF01DFD236898780FF019FDC7
:1035E000236818890FF05DFD2368D87954E3B24E43
:1035F0003368185D0FF00DFD33682344987A0FF09F
:1036000008FD33682344187D01340FF002FD0A2CB5
:10361000EDD1FFF79FBB2F200FF040FDA74C14F812
:10362000010F00283FF496AB0FF0F3FCF7E7012001
:103630000FF034FD02202FE30C2202FB01F3A0481F
:1036400000F1300E13F80E20BA421CD1034493F857
:1036500038000FF0DEFC94F841000FF0DAFC94F82B
:1036600042000FF0D6FC013694F843000FF0D1FC75
:10367000142E3FF46FAB904B00211C6804EB8604C2
:1036800094F84070D8E701312129D5D10020E0E736
:1036900048200FF003FD0026874B1C68062303FB20
:1036A000064494F896000FF0B4FC94F891000FF0E3
:1036B000B0FC94F892000FF0ACFC94F893000FF07B
:1036C000A8FC94F894000FF0A4FC013694F895003F
:1036D0000FF09FFC0C2EDFD1FFF73CBB00264FF014
:1036E00001094FF0000A774B1B789A452DDA764B8B
:1036F00000241AF803200C236343714F07F13001B3
:10370000595C914209D13B44586B15F092FF024637
:10371000B9F1000F05D1CB4605E00134212CEAD1E7
:1037200010E006440EE093450CDA0C2303FB04730F
:103730005B6B019213F80B000FF06BFC0BF1010BAC
:10374000019AF0E70AF1010ACDE7B9F1000F3FF461
:1037500001ABF0B20FF0A2FC4FF00009C1E7594EE7
:10376000002430780FF09AFC33789C42BFF4F2AA20
:10377000554B0021E75C0C2202FB01F3504800F19D
:10378000300E13F80E20BA4205D1034493F83800E6
:103790000FF03FFC02E001312129ECD10134E3E7D5
:1037A0004A4C16200FF07AFCB4F84C010FF079FC6B
:1037B000B4F8E4000FF075FCB4F8E6000FF071FC0B
:1037C000B4F8E8000FF06DFCB4F890010FF069FC5C
:1037D00094F8A6010FF01DFC00200FF01AFC94F8DD
:1037E000A7010FF016FC94F82F010FF012FC94F8CB
:1037F00047010FF00EFC00200FF00BFC2E4B0A20AF
:103800001B68B3F93E3093FBF0F080B20FF049FC37
:1038100024E108200FF042FC0124E0B201340FF053
:10382000F8FB092CF9D1FFF795BA294C12200FF0BB
:1038300035FC20790FF0EDFB60790FF0EAFBA06812
:103840000FF038FCE0680FF035FC2369642093FB2F
:10385000F0F080B20FF025FC208C0FF022FC608C81
:103860000FF01FFC208D13E21A4C05200FF016FC00
:10387000208F0FF016FC608F0FF013FC144B18789C
:1038800000F0010008E2144C07200FF007FC20783C
:103890000FF0BFFB60780FF0BCFB60790FF0B9FB55
:1038A00020790FF0B6FBA0780FF0B3FB0B4B188814
:1038B000EEE100BF6C220020541F0020FBA801088D
:1038C000FCA8010860320020613200201C28002082
:1038D000A41F0020F00B002004130020B40D0020D2
:1038E0000FF078FB064668B9CB4B1B78DB0733D566
:1038F000CA4B044693E80408D3F808A00746A5235A
:10390000814638E0FF280DD10024C54810A90DF0EC
:10391000D7FB2746109ADDF844B0DDF848A0A52370
:10392000A14628E0421ED3B21D2B1DD8BD4991F9F6
:103930006934984218DC18235A4302F5CC725318A4
:10394000D3F808B0515CD3F80CA05A68B3F81090C3
:103950005F8A9C8A9B7D0FE0A5230446074681462B
:1039600082468346024606E000242746A146A24638
:10397000A3462246A5230421152001930292039118
:103980000FF08CFB30460FF044FB039908460FF014
:1039900040FB029A10460FF08DFB58460FF08AFB51
:1039A00050460FF087FB1FFA89F00FF07AFBB8B290
:1039B0000FF077FBA0B20FF074FB019B18466BE190
:1039C00005200FF06BFB01200FF023FB964E00202B
:1039D0000FF01FFB00200FF01CFB308D6424B0FBA8
:1039E000F4F0C0B20FF015FB308DB0FBF4F0C0B2B4
:1039F00052E108200FF052FB00248C4B33F81400E6
:103A000001340FF04EFB042CF7D1FFF7A3B90C20C3
:103A10000FF044FB864B18680FF04CFB854B186881
:103A20000FF048FB844B18685CE504200FF036FB70
:103A3000824B986856E5814C06200FF02FFBB4F8B6
:103A4000FC000FF02EFBB4F8FE000FF02AFBB4F8D8
:103A500000011DE104200FF021FB784C94F82401B3
:103A60000FF0D7FA94F828010FF0D3FA94F8270151
:103A70000FF0CFFA94F829010EE101200FF00EFBB0
:103A80006E4B587908E16D4C08200FF007FB94F855
:103A90008E010FF0BEFA94F88F010FF0BAFAB4F865
:103AA00090010FF0FEFA94F892010FF0B2FAB4F818
:103AB00094010FF0F6FA94F89601EDE023780236BF
:103AC0009F42BFF447A916F8020C0FF0A2FA16F8AD
:103AD000010C013700EB800000EB800000F2EE20CB
:103AE00080B20FF0DEFAE9E701200FF0D7FA534B6E
:103AF00093F84701D0E008200FF0D0FA00244F4B94
:103B0000234493F8340101340FF083FA082CF6D1E2
:103B1000FFF720B9494C10200FF0C0FA60790FF080
:103B200078FAA0680FF0C6FA94F83C010FF071FA29
:103B3000B4F8FC000FF0B5FAB4F8FE000FF0B1FADB
:103B4000B4F800010FF0ADFAB4F82A010FF0A9FAA9
:103B5000B4F82C019CE03A4B384C187804F1280654
:103B6000C0EBC000C0B20FF099FA94F81A0200231B
:103B7000344AD25C904200F0F0850C333C2BF7D1F4
:103B80000834B442F1D1FFF7E5B82F4C0D200FF007
:103B900085FA04F01DF90FF03CFA20880FF08AFA3C
:103BA000E0680FF087FA04F0F3F89BE40FF028FACE
:103BB000064684200FF072FA30460FF07BFA224B53
:103BC00010AFDC6806F18003A3428CBFA41B8024E5
:103BD00002F010FF30462246394604F0F5F9064659
:103BE0000024B442BFF6B6A8385D0FF012FA0134D3
:103BF000F7E7124C04200FF051FA01200FF009FAF8
:103C000094F876060FF005FA94F874060FF001FAAE
:103C100094F8750640E000BF18360020F41200202A
:103C20006024002060230020A41F00202C0C002012
:103C3000E8F7FF1FECF7FF1FF0F7FF1F1C2800201D
:103C400054330020D4140020C800002013200FF0AB
:103C500025FA0024D74B185D01340FF0DAF90B2C4C
:103C6000F8D13BE4D44C05200FF018FA236893F800
:103C7000D9000FF0CEF9236893F8DA000FF0C9F9F4
:103C8000236893F8DC000FF0C4F9CC4BB3F8F200D2
:103C90000FF007FAFFF75EB80FF0BBF9FFF75AB85D
:103CA0002268002692F84930512B00F0FC8200F285
:103CB0008380392B00F00A8436D82B2B00F018842F
:103CC00021D8252B00F0EC8304D8232B00F0198198
:103CD00000F03FBD272B00F0EB83292B40F0398506
:103CE0000FF084F9B54CA4F82A010FF07FF9A4F87D
:103CF0002C010FF06FF984F82E010FF077F9A4F87A
:103D0000300100F021BD332B00F07A8404D82D2B34
:103D100000F0F38300F01DBD352B00F02581372B1B
:103D200000F0868400F015BD442B00F0AC8430D840
:103D30003E2B00F0C18001D83C2B49E0412B00F024
:103D40006D84432B40F005850FF044F99B4C002314
:103D5000A36060710FF054F9A3681843A0600FF0DE
:103D600039F984F83C010FF041F9A4F8FC000FF098
:103D70003DF9A4F8FE000FF039F9A4F800010FF0A6
:103D800035F9A4F82A010FF031F9A4F82C0100F05C
:103D9000DBBC4A2B00F09B8006D8482B40F0D9842E
:103DA00004F0F4F800F0D0BC4C2B00F0EB834E2B69
:103DB00000F0028400F0CDBCD22B63D020D8CD2BF4
:103DC00000F057820FD8C92B00F0818204D8C82B8D
:103DD00000F0BA8400F0BDBCCA2B7ED0CC2B00F022
:103DE000F58000F0B6BCCF2B00F03381C0F04B82E1
:103DF000D02B00F03282D12B00F0AA8200F0A9BCB7
:103E0000DA2B00F0CC811CD8D42B00F068814DD384
:103E1000D62B00F05981D92B40F09B840FF0E6F8A7
:103E2000664CA4F8EC000FF0E1F8A4F8EE000FF0F7
:103E3000DDF8A4F8F0000FF0D9F8A4F8F20000F0D3
:103E400083BCF22B00F0898114D8DB2B00F0B88101
:103E5000DC2B40F07E840FF0BDF8584C84F8F8005D
:103E60000FF0B8F884F8F9000FF0B4F884F8FA000D
:103E700000F06ABCF52B00F00B84FA2B00F00E82E8
:103E800000F067BC4E4B1B7803F0040303F0FF0403
:103E9000002B40F059840FF09DF8484B022883F81E
:103EA000540640F2E18183F85446DDE10FF09EF8BC
:103EB000444B188000F048BC0FF08CF83F4C84F85D
:103EC00099010FF087F884F8980100F03DBC0FF0DD
:103ED0008DF83A4BD88100F037BC374C27680FF08B
:103EE00079F8B85527680FF075F83744B872246828
:103EF0000FF070F8344401360A2E2075EDD100F031
:103F000023BC0FF067F8132804462AD82A4ED6F8A7
:103F100000900FF05FF800210C2202FB01F32A4F02
:103F2000FA1892F83820824218D13B4493F8303086
:103F300009EB840484F840300FF04CF884F8410019
:103F40000FF048F884F842000FF044F8316884F824
:103F5000430001F1400006F057F9F5E30131212952
:103F6000DAD106F059FAEFE30FF034F80B280646E1
:103F7000F7D8114B1C680FF02DF80328F1D8062351
:103F800003FB064484F896000FF024F884F89100AF
:103F90000FF020F884F892000FF01CF884F89300DA
:103FA0000FF018F884F894000FF014F884F89500D6
:103FB000CAE300BFB4D10108541F00201C28002010
:103FC000DB390020B40D0020FCA801085379092B2F
:103FD000C7D9C34E0EF0FEFF37680EF0FBFFB146A7
:103FE000387000270EF0F6FF022FD9F8003008D104
:103FF000012803DDB428A8BFB42000E0384658717A
:1040000008E0052803DDB428A8BFB42000E006209E
:104010003B44D8700137032FE4D10EF0DBFF376843
:104020006428A8BF6420B8710EF0D4FF7870376898
:104030000EF0D0FFB87036680EF0D8FF23683081DC
:104040005B790A2B40F28083A54B1C680EF0C2FFFF
:10405000D4E20EF0CBFF6FF4AF6E00EB0E039BB219
:10406000A04CC62B98BFA4F84C010EF0BFFFA4F8DB
:10407000E4000EF0BBFFA4F8E6000EF0B7FFA4F8D2
:10408000E8000EF0B3FFA4F890010EF0A3FF84F84F
:10409000A6010EF09FFF0EF09DFF84F8A7010EF021
:1040A00099FF84F82F010EF095FF84F847010EF078
:1040B00091FF8D4B1E680EF099FF00EB80004000D1
:1040C000F0870EF087FF04E20EF090FF052E9CBFF4
:1040D000864B23F816000136082EF5D134E35379C8
:1040E0000F2B7FF43EAF0EF075FF072804463FF616
:1040F00038AF7D4E37680EF079FF0E235C432744BE
:10410000A7F8DE0037680EF071FF2744A7F8E0003B
:1041100037680EF06BFF2744A7F8E20037680EF00F
:1041200059FF274487F8E40037680EF053FF27440F
:1041300087F8E50037680EF04DFF274487F8E60062
:1041400037680EF047FF274487F8E70036680EF01F
:1041500057FF3444C4F8E800F6E20EF03BFF0F28A6
:1041600004463FF6FEAE0EF035FF614BC4EBC404CF
:104170001C4420710EF02EFF60710EF02BFFA07119
:104180000EF028FFE0710EF025FF20720EF022FFE6
:1041900060720EF01FFFA0720FF062FFD4E2524C6B
:1041A00026680EF017FF86F8D90026680EF012FF79
:1041B00086F8DA0024680EF00DFF84F8DC00C3E214
:1041C000494B17221B6832211A755A7555229A706D
:1041D0002D221A7341221A7178229A73B4225A71CD
:1041E00005221A7408229A761422DA714B22DA76A2
:1041F0003C2228241E204FF00A0E0F274FF0640C9B
:104200001A7283F82020C822D970D9741C70987251
:104210005C70D8729E755E73DE7583F818E0DF738C
:1042200083F819C083F806E05F7483F809C083F847
:104230001DE083F821709C7783F82400DA8442F231
:1042400010721985DA625A214FF496721E635A84ED
:1042500083F838109A86DA8676E2264B1B785F0759
:1042600000F172820CF08AF90BF06EFE0BF0A4FFE5
:104270006AE2204B1B785E0700F166821E4B4FF40A
:10428000C8721A8060E21B4B1B785C0700F15C82ED
:104290001A4A137843F00403137055E2154B1B7848
:1042A0005807E1D555E2164B93F84430012B00F244
:1042B00050820EF08FFE0B4C84F876060EF08AFECC
:1042C00084F874060EF086FE84F875063CE20EF063
:1042D00081FE0A4B1A78A8B142F0020214E000BF36
:1042E0006C2200201C280020541F0020383600209B
:1042F0008C280020DB390020B00D0020183600206B
:10430000F00B002022F00202C04C1A70237803F058
:10431000F9036FF3041323700EF05CFE60710EF06E
:104320006FFEA0600EF06CFEE0600EF05FFE20619C
:104330000EF05CFE002320846383A383E3832020AC
:104340006423A384E3840BF090FD07F09BFFFBE163
:104350000EF040FE04460EF03DFE82460EF050FE8A
:1043600003900EF04DFE83460EF04AFE81460EF09D
:104370003DFE064687B20EF039FE1FFA80FCCDF8EE
:1043800008C00EF033FE83B201930EF023FE039AB1
:10439000CDF818B00592CDF81C90DDF808C0B4B97E
:1043A0009B4B1B78590741D59A4B197A00293DD070
:1043B00093F85C31002B39D005A810A901220CF02C
:1043C000B9FE10A82146072205F0E4F8BCE1FF2C55
:1043D0002CD1BAF1010F29D18D4B1B785B0725D564
:1043E0008C4B197A11B393F85C11F9B1997BE9B14F
:1043F0001B7803F0FD03052B18D1524605A810A920
:104400000CF098FE013EB9F1000FB6B20CBF0122CC
:1044100003223FB2B6F5B37F4FF0640198BF42F07C
:10442000040210A8794305F013F98DE104F1FF3E71
:104430005FFA8EF31D2B00F28781754B1B785907AD
:1044400000F18281BAF1010F03D0BAF1040F40F0FC
:104450007B81704991F9693401339C420B4602D04B
:10446000012C40F07181182606FB0EF606F5CC767D
:10447000334401F806A05A60BDF8042098759A826A
:10448000A0F1A50250425041C3F808B0C3F80C9007
:104490001F82A3F812C081F8694481F8680453E1CF
:1044A0005D4CA6600EF0ACFDA3681843A0604BE124
:1044B0000EF09CFD584CA4F8FC000EF097FDA4F8FB
:1044C000FE000EF093FDA4F800013DE10EF082FD28
:1044D000514C84F824010EF07DFD84F828010EF083
:1044E00079FD84F827010EF075FD84F829012BE190
:1044F0000EF070FD484B587126E10EF06BFD464EF4
:1045000086F83C010EF072FDA6F850010EF06EFD2B
:10451000A6F84C010EF06AFDA6F84E010EF05AFD09
:10452000236886F845015B79082B07D90EF05EFDFC
:10453000A6F852010EF05AFDA6F8540123685B79E3
:104540000C2B05D90EF046FD0EF044FD0EF04EFD8D
:1045500023685B79102B03D90EF03CFD86F83E01F1
:1045600023685B79112B03D90EF04AFDC6F8400190
:1045700023685B79152B40F2E7800EF02BFD86F85F
:104580004401E1E00EF026FD234C84F88E010EF08C
:1045900021FD84F88F010EF029FDA4F890010EF0A2
:1045A00019FD84F892010EF021FDA4F894010EF09B
:1045B00011FD84F89601C7E00EF00CFD11280646A7
:1045C0003FF6CFAC0EF006FD134CA83604EB4603C5
:1045D00098710EF00BFD40F2ED23984205DD40F698
:1045E000CA039842A8BF184601E040F2EE20A0F2AC
:1045F000EE20192390FBF3F004EB4604E071A3E0F6
:104600000EF0E8FC044B83F847019DE0A41F002056
:10461000DB390020602300201C2800200EF0DAFC8B
:10462000994B33440136082E83F83401F6D18BE0E0
:1046300053790724B3FBF4F4C4EBC4029B1A13F0C0
:10464000FF0F7FF48EACE4B2013CE4B2FF2C7BD0D0
:104650000EF0C0FCC7B278B20FF024FA064600286C
:104660003FF47FAC07700EF0C1FC70800EF0B2FC1E
:1046700030710EF0AFFC70710EF0ACFCF0710EF00A
:10468000A9FCB071E0E7814B012283F845205BE093
:1046900001200EF003FD7E483146602214F086FFB3
:1046A0003746DFF81892794B93F84A309E4238DA51
:1046B00099F80930DB0730D599F80820754B33F9A4
:1046C0001230002B29DDD9F80C3018790BF0EEF9F7
:1046D0006F4B01683A01808803EB020EAEF80600CA
:1046E00099504FF0000E012101FA0EF1014001D066
:1046F000714604E00EF1010EBEF1100FF3D1134428
:1047000099800221D97248211881997203F1080217
:104710009B680137536010239371013609F1080932
:10472000C1E75D4BF8B218700EF073FC0EF082FC1E
:10473000DAF800000BF07FFB236818680FF02AF905
:10474000236818680FF012FD00200EF0A7FCFEF79A
:1047500001BB05F061FEFEF7FDBA0EF05AFCB4F89D
:104760001C020EF09EFC94F81E020EF052FC94F80F
:104770001F020EF04EFC94F821020EF04AFC94F851
:1047800020020EF046FCFFF7FBB90C2803D143488A
:1047900010F0ACFD49E00A2801D00D2864D1404C4E
:1047A000404810F0A3FD2046232114F034FF08B147
:1047B000001B306033687BB35A1EA15C202901D1F5
:1047C0001346F8E7364A00213360D154364B374C54
:1047D000D3F80080D4F80090314F484614F029FFF8
:1047E000054649462A46384614F02CFF304A20B97F
:1047F0007B5D43445B78590703D008349442E9D386
:1048000006E0944204D2681C63683844984702E08A
:10481000284810F06BFD002321480021302233602E
:1048200014F0C4FE009B1B7853B30DF005FAFEF79D
:10483000D3B90C28ABD07F2804D1FEF7CDB92F2BEC
:104840003EF6CAA9A0F12002D2B25E2A3EF6C4A961
:1048500013B920283EF4C0A95A1C3260104AD05423
:1048600010F0C6FBFEF7B8B97F28E8D10C4A013B2F
:10487000002111483360D15410F038FDFEF7ACB977
:1048800031B0BDE8F08F00BF1C280020F00B0020E5
:10489000D4380020D03400201C36002051D101082B
:1048A000201F002094DF010814030020B0CF01086E
:1048B000A8D001085CD1010878D10108380C00208B
:1048C000A1492DE9F04F0A68A04C02F59C43203322
:1048D00023609F4B97B01E780091C6B19D4909682F
:1048E0008A4240F20681013E1E7002E1D9F8003092
:1048F000072D98BF595D984B88BF29461B6897487C
:104900009847032D0CD904EB4505A8800136934B3D
:10491000F5B21A78DFF86892AA421946E6D81EE086
:10492000D9F8002005F1100302EB8303D9881A8916
:104930000028E8D0401A4FF47A734343501A93FB8F
:10494000F0F040F2EE2300F57A709842B8BF1846B6
:1049500040F6CA039842A8BF184680B2D3E742F295
:1049600001087F4B1B6803EA0808B8FA88F87D4BFA
:104970004FEA58181B68B8F1000F06D194F82920A7
:1049800084F82820784A5078107094F828701FB165
:10499000754A177887F0010794F82BB00326BBFB04
:1049A000F6F60F2206EB460684F82A20C6EB0B0625
:1049B000D9F8002091F800A0DFF8CC91F6B20025DC
:1049C000554559DA4FEA450C1FB1684931F81500D1
:1049D00000E03846D18BDFF8B4E1814202D8118C77
:1049E00081421ED25EF825005849834203D26049B5
:1049F00031F80C0019E0E8B202920193039108F03B
:104A000087FC032D019B029A0FDC03994FF0010CE8
:104A100091F82AE00CFA05FC2EEA0C0E81F82AE047
:104A200003E003F596714EF82510B8F1000F1CD184
:104A300094F8BC1029F8160031B9BBF1020F14D953
:104A40004249012081F8BC00B9F80210B9F8000011
:104A50000844B9F804100844464980B221F815000A
:104A600000B2032190FBF1F080B2414909F106093F
:104A700021F815000135A3E794F82A203E4BA2F156
:104A80000F014A424A4184F8D620364992B13B4A46
:104A90001268120203D5324A1268D7050AD40A688E
:104AA0009A60DB68D21AC82A1ED9334B012283F8D8
:104AB000212019E02C4A0120507010700A68996872
:104AC000DA605B68521A9A4282BF2B4B002283F84D
:104AD00021200025554507DAE8B208F019FC244BDF
:104AE00023F815000135F5E794F82B30013384F8ED
:104AF0002B301B4B1A68984612F4805F05D01F4B71
:104B00001B68DE0701D410F0BBFE009B1E681C4B27
:104B10001F68F87C00283BD0154A7B7D013832F8AD
:104B200010001BB1C0F53B60083080B200B2A0F5A8
:104B30007A70B0F57A7FA8BF4FF47A7020EAE070FF
:104B400011F0C4FF0F4959E0BC390020B00C00201F
:104B5000F41E0020F01E0020FC0000201828002079
:104B600074140020F81E002002000020B40C002065
:104B7000CC1E00206E0D0020FC1E00205C320020A8
:104B8000C81E002000007A44DC0C0020240D002008
:104B9000D8F800301D043AD5D4F8D830A94DF31A0E
:104BA000002B34DB06F59C432033C5F8D830A64BE8
:104BB000DA79A64B33F812108AB2397D92FBF1F103
:104BC00095F8DC20013202F00F0385F8DC302B442D
:104BD00083F8DD1003469E4A825C0130134410289E
:104BE0009BB2F8D11BB293FBF0F000B26428A8BFCF
:104BF000642020EAE07011F069FF964912F06EF827
:104C0000954911F0B7FF12F0A1F9944B1880D8F82C
:104C10000030934D13F4807F00F05181914BDFF809
:104C200048A29E4205D99AF8022012B901228AF8B8
:104C300002209AF80220002A00F041818A4A92F864
:104C400021602A78711E4E424E418849C2F3800984
:104C500008688B46C0F3C05300932EB912F0080FBA
:104C60000CBF0027022700E000279AF82020062A20
:104C700000F22181DFE812F0070050007300950078
:104C8000BA00C9000801B9F1000F38D0D4F8F0001B
:104C9000B4F8F4100EF0CDFF012809D17449754A1B
:104CA00009681268C988642000FB0122CAF8102034
:104CB000009B5BB16E4A126812793AB10AF05CFB54
:104CC00004228AF820204FF47A7239E0002E40F056
:104CD000F280684ADAF810101068634A88420AD9EC
:104CE00001920AF049FB019A042182F8201040F653
:104CF000B831D161B9E7012182F82010B5E7009BF6
:104D00004FF4806013B10BF0C7F801E00BF0B4F87A
:104D10000022CAF81020CEE0002E40F08880544ACD
:104D20001268127A012A04D0022A0CD00AF024FB5D
:104D30009BE70AF021FB04228AF8202040F6B832D3
:104D4000CAF81C2091E701920AF016FB4A4901209B
:104D5000487404F093FA06F001F9019A68E0464AB3
:104D600036B10021517404F089FA06F0F7F85EE0DC
:104D7000517CB9F1000F18BF0327002930D01278F9
:104D80003E4901EB4211498901F4847141B30D2A76
:104D900026D0152A24D01F2A22D0B9F1000F1FD007
:104DA00089E026B106228AF82020012000E0304662
:104DB000B9F1000F0BD0D4F8F0200327118B304A43
:104DC0001180518091802A4909684988D180294AF7
:104DD0001168DAF81420914202D8B9F1000F67D1B6
:104DE00047F23052CAF81C20042221E02A7842F00F
:104DF00002022A7010F044FD1E4ADAF81C101268F4
:104E00000A44CAF81820052212E01A4A9EB1116815
:104E1000DAF8182091424ED91A4A12781AB9DBF8FA
:104E20000020D20747D42A7822F002022A700622F4
:104E30008AF8202019E71268DAF81C100A44CAF828
:104E4000182038E0B00C0020901E0020A41E002086
:104E50008D0D00200000C84200C07F4402130020D6
:104E6000DB390020404B4C00FC1E00205C3200204F
:104E700004200020F81E002060230020C0B101089B
:104E8000CC1E0020110000209D499E4A096812682E
:104E9000C988642000FB01224FF48060CAF810200A
:104EA00000228AF820208AF803200AF0E5FFDCE6D9
:104EB00000287FF4DAAE17B138460EF0FDFE924EB0
:104EC00006F59A70B6F8F2100EF0B3FE2B7801904A
:104ED00013F0040F009635D0D8F80030DB0631D53A
:104EE0008A4B1B78DF062DD4894B1B7893B196F83B
:104EF0009931B0B983B1834B1A68D4F8F8309B1A52
:104F0000002B09DA10F0BCFC824B9DF8042083F8DA
:104F1000FC2017E0019B6BB910200EF0CDFE0123A1
:104F20000EE03BB1774A4FF47A71126801FB03231C
:104F3000C4F8F83094F8FC3023B10EF0A9FE002339
:104F400084F8FC30009B002293F89801B3F84EE1FE
:104F5000B3F850C11346704F9B0837F91210013255
:104F60007145C4BF63F07F03DBB26145B8BF43F056
:104F70004003042A0497EED194F8FD2065499A4233
:104F800005D191F8FE20F92A04D8013200E0002270
:104F900081F8FE2084F8FD305D4B1A789946E2B91D
:104FA0005E4B1B68DE0707D5019BB3B92B78D8078A
:104FB00013D510F0C7FA10E02B7859070DD5554BD3
:104FC00093F828304BB1564BDB7833B910B110F061
:104FD00057FC02E0019B002BF9D094F8FE304D4FB6
:104FE000142B37D199F800308BB197F8FD305F2B37
:104FF0000DD12B7803F0040303F0FF0A13B110F076
:105000003FFC04E00B200EF057FE87F8FEA02B7843
:105010005A071FD494F8FD70572F04D1414B4FF419
:105020007A721A8016E05D2F00F070845B2F00F01A
:105030006F845E2F00F06E84562F01D10BF02AF89A
:1050400099F80030002B00F034846F2F40F0318449
:1050500010F078FA344B00211E68202206A896F83A
:10506000907014F0A3FA0EA80021202214F09EFAEA
:1050700006F1420A06F192091AF802BC16AB9B44EB
:105080001BF8402C9AF8001001320BF8402C9AF8CB
:1050900001201AF8010C914208D251460EF094FDFD
:1050A00020B11BF8202C01320BF8202C0AF1040A45
:1050B000CA45E1D100231A4606A9C85C60B10EA911
:1050C000012FC95C04D1814206D107FA03F102E045
:1050D00011B1012199400A430133202BECD10F4B30
:1050E0001A60124B1B783BB30C4FDFF844A03B68AF
:1050F000DFF8409013F0020F40F0ED81E1E100BFD6
:1051000004200020F81E00201C2800201836002053
:1051100011000020B00C0020CC1E00205C320020CA
:10512000FC1E00201A360020541F0020D939002010
:10513000641400205832002006F1920706F1DA09C3
:105140003A787B7817F8010C9A4223D239460EF050
:105150003BFDF8B1BB7897F804E00C21B74A013B5E
:1051600001FB0EF103EB43031344B54A97F803A088
:10517000501846689E420DD04360002302F801A0FB
:10518000836094F80221012303FA0EF322EA030359
:1051900084F8023106374F45D2D1AA4BDFF8BCB2B2
:1051A0001F68A94B4FF0000A1B68029394F828303F
:1051B0000393DBF80030002B00F07A8193F8009025
:1051C000B9F1000F00F07481DBF8042002998A1A0B
:1051D000002A0CDB01F5FA72CBF8042094F80211D6
:1051E000012202FA0AF221EA020284F80221039A59
:1051F000002A00F05D811BF8042C59780432D2B2E9
:10520000002940F00B81914931F91210904AB2F80F
:105210004C2102F1C800814201DD9E7814E0C83AB9
:10522000914202DA99784E420EE094F8022101236D
:1052300003FA0AF322EA030384F80231029B03F51E
:10524000FA73CBF8043033E194F8022142FA0AF2FF
:10525000D30700F12D81002ECCBF022001200EF0DB
:1052600061FDA9F10202122A00F21A81DFE812F0B0
:1052700013001D0031004E005A0077009400B0006A
:10528000BC00C8001801310042005A0077009400A9
:105290006B008800A4003978022031446429A8BF3B
:1052A000642121EAE1713970B5E097F80290694B09
:1052B000B144B9F1640FA8BF4FF0640929EAE97954
:1052C00087F80290384619680EF02AFC03204946F8
:1052D000A1E039793144052903DDB429A8BFB421FF
:1052E00000E0062139710D200EF0BEFCB9F10D0F62
:1052F00000F0D680F9783144052903DDB429A8BF30
:10530000B42100E00621F9700E2084E0797931445F
:10531000012903DDB429A8BFB42100E0022179717D
:10532000052078E04C4A0F20126851783144C82992
:10533000A8BFC82121EAE17151700EF095FCB9F1C6
:105340000F0F00F0AD80444A1220126811783144EA
:10535000C829A8BFC82121EAE17111705BE03E4A6B
:1053600010201268D17A3144C829A8BFC82121EA87
:10537000E171D1720EF078FCB9F1100F00F090805D
:10538000354A13201268917A3144C829A8BFC82130
:1053900021EAE17191723EE02F4A11201268517D9D
:1053A0003144C829A8BFC82121EAE17151750EF026
:1053B0005BFCB9F1110F73D0274A14201268117DDC
:1053C0003144C829A8BFC82121EAE171117522E042
:1053D000214A0920126891783144C829A8BFC82100
:1053E00021EAE171917016E01B4A0A201268117BD4
:1053F0003144C829A8BFC82121EAE17111730AE02C
:10540000154A0B201268917D3144C829A8BFC821D4
:1054100021EAE17191750EF027FC41E001293FD1AD
:1054200098780A4B33F91230B3F5617F18DB40F6F8
:1054300033029342A8BF134614E000BFB8AA010884
:10544000742200206C220020F81E0020CC1E0020B8
:105450001C280020C4140020C8140020782200203A
:105460004FF46173B9F10C0F1AD14FF4966292FBAD
:10547000F0F0A3F5617393FBF0F3A54ADBB2127869
:105480009A420DD0184605930AF046FD059B484602
:1054900019460EF0E9FB059B581CC0B20EF042FC09
:1054A00094F80221012303FA0AF3134384F802312A
:1054B0000AF1010ABAF1040F0BF10C0B7FF479AE7B
:1054C00012E6D8F80030DE0502D5924BDB7813B92E
:1054D00003F0B8FE60B1DAF80030980708D5B9F8E3
:1054E000003013F0010B08D101200AF0D5FC04E0D4
:1054F00001200AF0C1FC012300E000233A685107B3
:105500000BD553B101200AF0B7FCB9F800309A0767
:1055100006D402200AF0C0FC02E002200AF0ACFC33
:10552000B9F80010012011F0030118BF01460AF07C
:105530005CFC3B68DB0008D5B9F800309E0408D459
:105540004FF400500AF0A8FC03E04FF400500AF0BA
:1055500093FC3B6858000DD56F4B93F90030002B3E
:1055600008DAB9F80030590408D44FF480400AF042
:1055700093FC03E04FF480400AF07EFC3B68002B74
:1055800008DAB9F90030002B08DB4FF400400AF0CC
:1055900083FC03E04FF400400AF06EFCDAF80030C0
:1055A00013F00A0F2FD03B68DA060FD5B9F8003098
:1055B0005B070ED404200AF06FFC584B0A22B3F9A3
:1055C000043093FBF2F3A4F8043102E004200AF063
:1055D00053FC3B689E0607D5B9F80030580606D440
:1055E00040200AF059FC02E040200AF045FC3B68EC
:1055F000590641BF494B0A22B3F9043093FBF2F339
:1056000048BFA4F806313B681A0507D503F01AFE17
:1056100020B94FF480700AF03FFC03E04FF4807033
:105620000AF02AFCB9F800303D4C13F4807F31D1E8
:105630002B785B072ED5019A374B12BB3A6896013F
:1056400024D5344AD2780ABB3649B4F84C21B1F992
:1056500002E002F11800704508DB183A724505DCDB
:10566000B1F90010884201DB8A4206DD2E4A126839
:10567000D20606D51A78D00603D41A7842F0200252
:1056800002E01A7822F020021A7005E01A7822F05F
:1056900020021A700EF03CFC637903F0EF02082A36
:1056A00001D00E2B02D140200AF0E6FBD8F80030E2
:1056B00059051BD594F844321BB92B7813F0040F0D
:1056C00002E03B6813F4802F0AD0184B00221A70B6
:1056D0004FF49E7004F00CFE40B10DF01BFCF7E798
:1056E0000CF0C0FE0CF02AFE0DF036FC104B114DF4
:1056F0001C68114B1A68907928B10A4B1289B3F9CA
:10570000063093421ADA4FF07E53C5F8083129E08B
:1057100051320020FC1E002018360020803300206B
:105720001C280020CC1E002074140020CD14002062
:10573000541F0020B00C00206C220020B3F5FA6F3B
:10574000BFBF9B1A4343A2F5FA6093FBF0F0ACBFD6
:10575000C0F16400643011F0B9F9764911F0BEFA75
:10576000C5F80801009B4FF00009B3F84E0111F095
:10577000A9F90746049BB3F9060011F0A7F93946C9
:1057800011F0EEF8009B8046B3F8500111F09AF941
:10579000394611F0E5F80146404611F09FFA002124
:1057A000064611F085FB60B930464FF07E5111F08E
:1057B0009DFBF0B930464FF07A5111F079FBC0B142
:1057C00000E04E464FF08141304611F0D3F94FF0E2
:1057D0007C5111F0C7F80021074611F069FB30B980
:1057E00038464FF07E5111F081FB20B101E00027D7
:1057F00001E04FF07E572646D5F808A14E4C4FF0F9
:105800000008307811F062F94C4911F067FA206015
:105810000190B07A11F05AF94FF07A5111F0AAF9CB
:1058200060608346307D11F051F9454911F056FA18
:10583000B8F1020FA06000900FD0019A51461046B7
:1058400011F098F939462060504611F093F9009B09
:105850000146184611F08EF9A0603378C3B1B37ACF
:10586000B3B1236859461846009311F037FA009BEC
:1058700083461946A06811F031FA0146584611F0E6
:1058800071F801464FF0804011F028FAE06001E025
:10589000C4F80C9008F10108B8F1030F06F10106F5
:1058A00004F16C04ADD1012385F80C3117B0BDE8CB
:1058B000F08F972F05D14FF4C873A4F80031FFF78C
:1058C000C9BBA72F06D11F4A137843F004031370F6
:1058D000FFF7C0BBBB2F03D100206FF001010EE02A
:1058E000B72F02D10020022109E0BE2F02D16FF0B4
:1058F000010003E0BD2F7FF4ADAB022000210AF0D0
:10590000D9FB0A2384F8FE30FFF7A4BB012002E094
:10591000022000E00320C7B2009A7B1E82F85436B2
:105920000AF012FB0AF048FC38460EF0FBF9FFF7CC
:1059300091BB00BF0000C8428C3300200000F8413A
:105940000020EE4418360020426A806A131A58423A
:10595000584170474171704743799B070AD5436AA4
:105960008269D154436A01690133B3FBF1F201FB4F
:10597000123343627047427902F0020202F0FF03E1
:1059800042B10369426A806A013BDBB2101A23EA22
:105990000000704718467047437913F001031FBF9A
:1059A000C36803F1FF32C369006A1ABF181A1040B6
:1059B00018467047437910B513F0010304460DD023
:1059C000FFF7EAFF58B1236A6269E168D05C0133EE
:1059D000B3FBF1F201FB1233236210BD184610BD78
:1059E00090F8433210B57BB990F8423290F84142BA
:1059F000A34209D2B0F8481201229A400A43013367
:105A0000A0F84822DBB2F3E710BD0C2343438D4AD4
:105A1000F0B5D3588C499D8A8C4AADB2ECB214F0E3
:105A2000010F4FEA001031D01C8824F400642404D4
:105A3000240C1C801C88A4B244F480641C800024C4
:105A400014700C18E579ADB1557815B92479FF2C8F
:105A500010D1012454700C186479022C01BF1C88E9
:105A6000A4B244F400641C800C18E47844F00104EF
:105A70001C82FBE00D18EC7804F0FE041C822C79EB
:105A8000FF2C00F0F380FF241470EFE0A7073BD554
:105A9000BFF35F8F0C186579EDB2012D13D1E47956
:105AA0008CB154787CB11C8824F480642404240CC8
:105AB0001C80BFF35F8F1C8B1C889570A4B244F4CC
:105AC00000741C801BE01C8BBFF35F8F0C18657982
:105AD000022D0AD1E47944B1547834B11C8824F4FD
